{
  "contractName": "AstterCore",
  "abi": [
    {
      "inputs": [],
      "stateMutability": "nonpayable",
      "type": "constructor"
    },
    {
      "anonymous": false,
      "inputs": [
        {
          "indexed": true,
          "internalType": "uint256",
          "name": "_subId",
          "type": "uint256"
        },
        {
          "indexed": false,
          "internalType": "string",
          "name": "name",
          "type": "string"
        },
        {
          "indexed": false,
          "internalType": "uint256",
          "name": "timestamp",
          "type": "uint256"
        }
      ],
      "name": "CourseAdded",
      "type": "event"
    },
    {
      "anonymous": false,
      "inputs": [
        {
          "indexed": true,
          "internalType": "address",
          "name": "_user",
          "type": "address"
        },
        {
          "indexed": false,
          "internalType": "uint256",
          "name": "timestamp",
          "type": "uint256"
        }
      ],
      "name": "SubscriptionPurchased",
      "type": "event"
    },
    {
      "anonymous": false,
      "inputs": [
        {
          "indexed": true,
          "internalType": "address",
          "name": "_user",
          "type": "address"
        },
        {
          "indexed": false,
          "internalType": "uint256",
          "name": "timestamp",
          "type": "uint256"
        }
      ],
      "name": "UserAdded",
      "type": "event"
    },
    {
      "inputs": [],
      "name": "addUser",
      "outputs": [],
      "stateMutability": "nonpayable",
      "type": "function"
    },
    {
      "inputs": [
        {
          "internalType": "string",
          "name": "_name",
          "type": "string"
        },
        {
          "internalType": "string",
          "name": "_cover_photo",
          "type": "string"
        }
      ],
      "name": "addCourse",
      "outputs": [],
      "stateMutability": "nonpayable",
      "type": "function"
    },
    {
      "inputs": [
        {
          "internalType": "uint256",
          "name": "_course",
          "type": "uint256"
        },
        {
          "internalType": "string",
          "name": "_name",
          "type": "string"
        },
        {
          "internalType": "string",
          "name": "_url",
          "type": "string"
        },
        {
          "internalType": "uint256",
          "name": "_duration",
          "type": "uint256"
        }
      ],
      "name": "addVideos",
      "outputs": [],
      "stateMutability": "nonpayable",
      "type": "function"
    },
    {
      "inputs": [
        {
          "internalType": "uint256",
          "name": "_sub",
          "type": "uint256"
        }
      ],
      "name": "getVideos",
      "outputs": [
        {
          "components": [
            {
              "internalType": "uint256",
              "name": "id",
              "type": "uint256"
            },
            {
              "internalType": "string",
              "name": "name",
              "type": "string"
            },
            {
              "internalType": "string",
              "name": "url",
              "type": "string"
            },
            {
              "internalType": "uint256",
              "name": "duration",
              "type": "uint256"
            }
          ],
          "internalType": "struct AstterCore.Video[]",
          "name": "",
          "type": "tuple[]"
        }
      ],
      "stateMutability": "view",
      "type": "function"
    },
    {
      "inputs": [],
      "name": "buySubscription",
      "outputs": [],
      "stateMutability": "nonpayable",
      "type": "function"
    },
    {
      "inputs": [
        {
          "internalType": "uint256",
          "name": "_courseId",
          "type": "uint256"
        }
      ],
      "name": "completeCourse",
      "outputs": [],
      "stateMutability": "nonpayable",
      "type": "function"
    },
    {
      "inputs": [
        {
          "internalType": "address",
          "name": "_user",
          "type": "address"
        }
      ],
      "name": "currentReward",
      "outputs": [
        {
          "internalType": "uint256",
          "name": "",
          "type": "uint256"
        }
      ],
      "stateMutability": "view",
      "type": "function"
    },
    {
      "inputs": [],
      "name": "unstake",
      "outputs": [],
      "stateMutability": "nonpayable",
      "type": "function"
    },
    {
      "inputs": [],
      "name": "withdrawReward",
      "outputs": [],
      "stateMutability": "nonpayable",
      "type": "function"
    },
    {
      "inputs": [
        {
          "internalType": "address",
          "name": "_user",
          "type": "address"
        }
      ],
      "name": "getUserStaked",
      "outputs": [
        {
          "internalType": "uint256",
          "name": "",
          "type": "uint256"
        }
      ],
      "stateMutability": "view",
      "type": "function"
    },
    {
      "inputs": [],
      "name": "getTotalStaked",
      "outputs": [
        {
          "internalType": "uint256",
          "name": "",
          "type": "uint256"
        }
      ],
      "stateMutability": "view",
      "type": "function"
    },
    {
      "inputs": [],
      "name": "getTotalDeposited",
      "outputs": [
        {
          "internalType": "uint256",
          "name": "",
          "type": "uint256"
        }
      ],
      "stateMutability": "view",
      "type": "function"
    },
    {
      "inputs": [],
      "name": "getTotalAstterSupply",
      "outputs": [
        {
          "internalType": "uint256",
          "name": "",
          "type": "uint256"
        }
      ],
      "stateMutability": "view",
      "type": "function"
    },
    {
      "inputs": [],
      "name": "getAstterBalanceOfContract",
      "outputs": [
        {
          "internalType": "uint256",
          "name": "",
          "type": "uint256"
        }
      ],
      "stateMutability": "view",
      "type": "function"
    },
    {
      "inputs": [
        {
          "internalType": "address",
          "name": "_user",
          "type": "address"
        }
      ],
      "name": "getSubscriptionStatus",
      "outputs": [
        {
          "internalType": "uint256",
          "name": "",
          "type": "uint256"
        }
      ],
      "stateMutability": "view",
      "type": "function"
    },
    {
      "inputs": [],
      "name": "withdrawLiquidity",
      "outputs": [],
      "stateMutability": "nonpayable",
      "type": "function"
    }
  ],
  "bytecode": "0x60806040523480156200001157600080fd5b5060008081905550600060018190555033600260006101000a81548173ffffffffffffffffffffffffffffffffffffffff021916908373ffffffffffffffffffffffffffffffffffffffff160217905550633dcc50006003819055507308a978a0399465621e667c49cd54cc874dc064eb600560006101000a81548173ffffffffffffffffffffffffffffffffffffffff021916908373ffffffffffffffffffffffffffffffffffffffff16021790555073fe9085eb365a4807974fd76335605b939f57168f600460006101000a81548173ffffffffffffffffffffffffffffffffffffffff021916908373ffffffffffffffffffffffffffffffffffffffff1602179055506000600e6040516200012990620001c0565b9081526020016040518091039020819055506000600e6040516200014d9062000227565b9081526020016040518091039020819055506200023e565b600081905092915050565b7f7374616b65640000000000000000000000000000000000000000000000000000600082015250565b6000620001a860068362000165565b9150620001b58262000170565b600682019050919050565b6000620001cd8262000199565b9150819050919050565b7f6465706f73697400000000000000000000000000000000000000000000000000600082015250565b60006200020f60078362000165565b91506200021c82620001d7565b600782019050919050565b6000620002348262000200565b9150819050919050565b612940806200024e6000396000f3fe608060405234801561001057600080fd5b50600436106101005760003560e01c8063455c928c11610097578063b5da9f3311610066578063b5da9f331461024d578063b68ef5591461026b578063c885bc5814610289578063dac3fc3f1461029357610100565b8063455c928c146101d95780637ea382c1146101e35780639d18e4b0146101ed578063a18546ad1461021d57610100565b80632718b175116100d35780632718b1751461018d5780632b75565d146101975780632def6620146101b3578063355f4e47146101bd57610100565b80630917e776146101055780630d3b4292146101235780631d1144081461013f5780631ddda9b61461015d575b600080fd5b61010d6102c3565b60405161011a9190611b86565b60405180910390f35b61013d60048036038101906101389190611be1565b6102e7565b005b6101476104fd565b6040516101549190611b86565b60405180910390f35b61017760048036038101906101729190611c6c565b6105a0565b6040516101849190611b86565b60405180910390f35b6101956105e9565b005b6101b160048036038101906101ac9190611ddf565b610a02565b005b6101bb610be2565b005b6101d760048036038101906101d29190611e57565b610dd4565b005b6101e1610f3e565b005b6101eb610feb565b005b61020760048036038101906102029190611c6c565b611339565b6040516102149190611b86565b60405180910390f35b61023760048036038101906102329190611be1565b611506565b60405161024491906120b9565b60405180910390f35b6102556116b3565b6040516102629190611b86565b60405180910390f35b61027361174b565b6040516102809190611b86565b60405180910390f35b61029161176f565b005b6102ad60048036038101906102a89190611c6c565b6118c1565b6040516102ba9190611b86565b60405180910390f35b6000600e6040516102d390612132565b908152602001604051809103902054905090565b600260009054906101000a900473ffffffffffffffffffffffffffffffffffffffff1673ffffffffffffffffffffffffffffffffffffffff163373ffffffffffffffffffffffffffffffffffffffff1614610377576040517f08c379a000000000000000000000000000000000000000000000000000000000815260040161036e906121ca565b60405180910390fd5b6000600154116103bc576040517f08c379a00000000000000000000000000000000000000000000000000000000081526004016103b39061225c565b60405180910390fd5b6001600c60003373ffffffffffffffffffffffffffffffffffffffff1673ffffffffffffffffffffffffffffffffffffffff1681526020019081526020016000206000838152602001908152602001600020541461044f576040517f08c379a0000000000000000000000000000000000000000000000000000000008152600401610446906122ee565b60405180910390fd5b6001600c60003373ffffffffffffffffffffffffffffffffffffffff1673ffffffffffffffffffffffffffffffffffffffff168152602001908152602001600020600083815260200190815260200160002081905550600d60003373ffffffffffffffffffffffffffffffffffffffff1673ffffffffffffffffffffffffffffffffffffffff16815260200190815260200160002060008154809291906104f59061233d565b919050555050565b6000600460009054906101000a900473ffffffffffffffffffffffffffffffffffffffff1673ffffffffffffffffffffffffffffffffffffffff166370a08231306040518263ffffffff1660e01b815260040161055a9190612395565b602060405180830381865afa158015610577573d6000803e3d6000fd5b505050506040513d601f19601f8201168201806040525081019061059b91906123c5565b905090565b6000600960008373ffffffffffffffffffffffffffffffffffffffff1673ffffffffffffffffffffffffffffffffffffffff168152602001908152602001600020549050919050565b6000600560009054906101000a900473ffffffffffffffffffffffffffffffffffffffff1673ffffffffffffffffffffffffffffffffffffffff1663313ce5676040518163ffffffff1660e01b8152600401602060405180830381865afa158015610658573d6000803e3d6000fd5b505050506040513d601f19601f8201168201806040525081019061067c919061242b565b600a610688919061258b565b606461069491906125d6565b9050600560009054906101000a900473ffffffffffffffffffffffffffffffffffffffff1673ffffffffffffffffffffffffffffffffffffffff166323b872dd3330846040518463ffffffff1660e01b81526004016106f593929190612630565b6020604051808303816000875af1158015610714573d6000803e3d6000fd5b505050506040513d601f19601f82011682018060405250810190610738919061269f565b5080600e60405161074890612718565b908152602001604051809103902054610761919061272d565b600e60405161076f90612718565b908152602001604051809103902081905550600460009054906101000a900473ffffffffffffffffffffffffffffffffffffffff1673ffffffffffffffffffffffffffffffffffffffff1663095ea7b333836040518363ffffffff1660e01b81526004016107de929190612783565b6020604051808303816000875af11580156107fd573d6000803e3d6000fd5b505050506040513d601f19601f82011682018060405250810190610821919061269f565b50600460009054906101000a900473ffffffffffffffffffffffffffffffffffffffff1673ffffffffffffffffffffffffffffffffffffffff1663a9059cbb33836040518363ffffffff1660e01b815260040161087f929190612783565b6020604051808303816000875af115801561089e573d6000803e3d6000fd5b505050506040513d601f19601f820116820180604052508101906108c2919061269f565b5080600e6040516108d290612132565b90815260200160405180910390208190555080600a60003373ffffffffffffffffffffffffffffffffffffffff1673ffffffffffffffffffffffffffffffffffffffff1681526020019081526020016000208190555042600b60003373ffffffffffffffffffffffffffffffffffffffff1673ffffffffffffffffffffffffffffffffffffffff168152602001908152602001600020819055506001600960003373ffffffffffffffffffffffffffffffffffffffff1673ffffffffffffffffffffffffffffffffffffffff168152602001908152602001600020819055503373ffffffffffffffffffffffffffffffffffffffff167f799bcc5d05a0d37fc0012dba6e154d1353b3b36495bf076daf88f7b1428a3f81426040516109f79190611b86565b60405180910390a250565b600260009054906101000a900473ffffffffffffffffffffffffffffffffffffffff1673ffffffffffffffffffffffffffffffffffffffff163373ffffffffffffffffffffffffffffffffffffffff1614610a92576040517f08c379a0000000000000000000000000000000000000000000000000000000008152600401610a89906121ca565b60405180910390fd5b6000600760006001548152602001908152602001600020905082816000019080519060200190610ac392919061190a565b5081816001019080519060200190610adc92919061190a565b504281600201819055506000816003018190555060088190806001815401808255809150506001900390600052602060002090600502016000909190919091506000820181600001908054610b30906127db565b610b3b929190611990565b506001820181600101908054610b50906127db565b610b5b929190611990565b5060028201548160020155600382015481600301556004820181600401908054610b86929190611a1d565b5050506001547f408bd38fab55422dd8e6b059c527441102dfdedd8f00efe28b2b851e3a3733158442604051610bbd929190612846565b60405180910390a260016000815480929190610bd89061233d565b9190505550505050565b6000610bed33611339565b90506000600a60003373ffffffffffffffffffffffffffffffffffffffff1673ffffffffffffffffffffffffffffffffffffffff168152602001908152602001600020549050600460009054906101000a900473ffffffffffffffffffffffffffffffffffffffff1673ffffffffffffffffffffffffffffffffffffffff1663095ea7b3338385610c7e919061272d565b6040518363ffffffff1660e01b8152600401610c9b929190612783565b6020604051808303816000875af1158015610cba573d6000803e3d6000fd5b505050506040513d601f19601f82011682018060405250810190610cde919061269f565b50600460009054906101000a900473ffffffffffffffffffffffffffffffffffffffff1673ffffffffffffffffffffffffffffffffffffffff1663a9059cbb338385610d2a919061272d565b6040518363ffffffff1660e01b8152600401610d47929190612783565b6020604051808303816000875af1158015610d66573d6000803e3d6000fd5b505050506040513d601f19601f82011682018060405250810190610d8a919061269f565b506000600a60003373ffffffffffffffffffffffffffffffffffffffff1673ffffffffffffffffffffffffffffffffffffffff168152602001908152602001600020819055505050565b600260009054906101000a900473ffffffffffffffffffffffffffffffffffffffff1673ffffffffffffffffffffffffffffffffffffffff163373ffffffffffffffffffffffffffffffffffffffff1614610e64576040517f08c379a0000000000000000000000000000000000000000000000000000000008152600401610e5b906121ca565b60405180910390fd5b600060076000868152602001908152602001600020905080600401604051806080016040528083600301548152602001868152602001858152602001848152509080600181540180825580915050600190039060005260206000209060040201600090919091909150600082015181600001556020820151816001019080519060200190610ef392919061190a565b506040820151816002019080519060200190610f1092919061190a565b50606082015181600301555050806003016000815480929190610f329061233d565b91905055505050505050565b600054600660003373ffffffffffffffffffffffffffffffffffffffff1673ffffffffffffffffffffffffffffffffffffffff168152602001908152602001600020819055503373ffffffffffffffffffffffffffffffffffffffff167f25ddd06f7eaeb83bb3fbcaa231d4b89e2d7bcd781043983661920061e755a7f042604051610fca9190611b86565b60405180910390a2600080815480929190610fe49061233d565b9190505550565b600260009054906101000a900473ffffffffffffffffffffffffffffffffffffffff1673ffffffffffffffffffffffffffffffffffffffff163373ffffffffffffffffffffffffffffffffffffffff161461107b576040517f08c379a0000000000000000000000000000000000000000000000000000000008152600401611072906121ca565b60405180910390fd5b600460009054906101000a900473ffffffffffffffffffffffffffffffffffffffff1673ffffffffffffffffffffffffffffffffffffffff1663095ea7b3600260009054906101000a900473ffffffffffffffffffffffffffffffffffffffff16600460009054906101000a900473ffffffffffffffffffffffffffffffffffffffff1673ffffffffffffffffffffffffffffffffffffffff166370a08231306040518263ffffffff1660e01b81526004016111379190612395565b602060405180830381865afa158015611154573d6000803e3d6000fd5b505050506040513d601f19601f8201168201806040525081019061117891906123c5565b6040518363ffffffff1660e01b8152600401611195929190612783565b6020604051808303816000875af11580156111b4573d6000803e3d6000fd5b505050506040513d601f19601f820116820180604052508101906111d8919061269f565b50600460009054906101000a900473ffffffffffffffffffffffffffffffffffffffff1673ffffffffffffffffffffffffffffffffffffffff1663a9059cbb600260009054906101000a900473ffffffffffffffffffffffffffffffffffffffff16600460009054906101000a900473ffffffffffffffffffffffffffffffffffffffff1673ffffffffffffffffffffffffffffffffffffffff166370a08231306040518263ffffffff1660e01b81526004016112959190612395565b602060405180830381865afa1580156112b2573d6000803e3d6000fd5b505050506040513d601f19601f820116820180604052508101906112d691906123c5565b6040518363ffffffff1660e01b81526004016112f3929190612783565b6020604051808303816000875af1158015611312573d6000803e3d6000fd5b505050506040513d601f19601f82011682018060405250810190611336919061269f565b50565b600080600b60008473ffffffffffffffffffffffffffffffffffffffff1673ffffffffffffffffffffffffffffffffffffffff16815260200190815260200160002054426113879190612876565b90506000600460009054906101000a900473ffffffffffffffffffffffffffffffffffffffff1673ffffffffffffffffffffffffffffffffffffffff166370a08231306040518263ffffffff1660e01b81526004016113e69190612395565b602060405180830381865afa158015611403573d6000803e3d6000fd5b505050506040513d601f19601f8201168201806040525081019061142791906123c5565b600e60405161143590612132565b90815260200160405180910390205461144e91906128d9565b82600d60008773ffffffffffffffffffffffffffffffffffffffff1673ffffffffffffffffffffffffffffffffffffffff1681526020019081526020016000205460035461149c91906125d6565b6114a691906128d9565b600a60008773ffffffffffffffffffffffffffffffffffffffff1673ffffffffffffffffffffffffffffffffffffffff168152602001908152602001600020546114f091906125d6565b6114fa91906125d6565b90508092505050919050565b606060076000838152602001908152602001600020600401805480602002602001604051908101604052809291908181526020016000905b828210156116a857838290600052602060002090600402016040518060800160405290816000820154815260200160018201805461157b906127db565b80601f01602080910402602001604051908101604052809291908181526020018280546115a7906127db565b80156115f45780601f106115c9576101008083540402835291602001916115f4565b820191906000526020600020905b8154815290600101906020018083116115d757829003601f168201915b5050505050815260200160028201805461160d906127db565b80601f0160208091040260200160405190810160405280929190818152602001828054611639906127db565b80156116865780601f1061165b57610100808354040283529160200191611686565b820191906000526020600020905b81548152906001019060200180831161166957829003601f168201915b505050505081526020016003820154815250508152602001906001019061153e565b505050509050919050565b6000600460009054906101000a900473ffffffffffffffffffffffffffffffffffffffff1673ffffffffffffffffffffffffffffffffffffffff166318160ddd6040518163ffffffff1660e01b8152600401602060405180830381865afa158015611722573d6000803e3d6000fd5b505050506040513d601f19601f8201168201806040525081019061174691906123c5565b905090565b6000600e60405161175b90612718565b908152602001604051809103902054905090565b600061177a33611339565b9050600460009054906101000a900473ffffffffffffffffffffffffffffffffffffffff1673ffffffffffffffffffffffffffffffffffffffff1663095ea7b333836040518363ffffffff1660e01b81526004016117d9929190612783565b6020604051808303816000875af11580156117f8573d6000803e3d6000fd5b505050506040513d601f19601f8201168201806040525081019061181c919061269f565b50600460009054906101000a900473ffffffffffffffffffffffffffffffffffffffff1673ffffffffffffffffffffffffffffffffffffffff1663a9059cbb33836040518363ffffffff1660e01b815260040161187a929190612783565b6020604051808303816000875af1158015611899573d6000803e3d6000fd5b505050506040513d601f19601f820116820180604052508101906118bd919061269f565b5050565b6000600a60008373ffffffffffffffffffffffffffffffffffffffff1673ffffffffffffffffffffffffffffffffffffffff168152602001908152602001600020549050919050565b828054611916906127db565b90600052602060002090601f016020900481019282611938576000855561197f565b82601f1061195157805160ff191683800117855561197f565b8280016001018555821561197f579182015b8281111561197e578251825591602001919060010190611963565b5b50905061198c9190611ac9565b5090565b82805461199c906127db565b90600052602060002090601f0160209004810192826119be5760008555611a0c565b82601f106119cf5780548555611a0c565b82800160010185558215611a0c57600052602060002091601f016020900482015b82811115611a0b5782548255916001019190600101906119f0565b5b509050611a199190611ac9565b5090565b828054828255906000526020600020906004028101928215611ab85760005260206000209160040282015b82811115611ab7578282600082015481600001556001820181600101908054611a70906127db565b611a7b929190611990565b506002820181600201908054611a90906127db565b611a9b929190611990565b5060038201548160030155505091600401919060040190611a48565b5b509050611ac59190611ae6565b5090565b5b80821115611ae2576000816000905550600101611aca565b5090565b5b80821115611b2957600080820160009055600182016000611b089190611b2d565b600282016000611b189190611b2d565b600382016000905550600401611ae7565b5090565b508054611b39906127db565b6000825580601f10611b4b5750611b6a565b601f016020900490600052602060002090810190611b699190611ac9565b5b50565b6000819050919050565b611b8081611b6d565b82525050565b6000602082019050611b9b6000830184611b77565b92915050565b6000604051905090565b600080fd5b600080fd5b611bbe81611b6d565b8114611bc957600080fd5b50565b600081359050611bdb81611bb5565b92915050565b600060208284031215611bf757611bf6611bab565b5b6000611c0584828501611bcc565b91505092915050565b600073ffffffffffffffffffffffffffffffffffffffff82169050919050565b6000611c3982611c0e565b9050919050565b611c4981611c2e565b8114611c5457600080fd5b50565b600081359050611c6681611c40565b92915050565b600060208284031215611c8257611c81611bab565b5b6000611c9084828501611c57565b91505092915050565b600080fd5b600080fd5b6000601f19601f8301169050919050565b7f4e487b7100000000000000000000000000000000000000000000000000000000600052604160045260246000fd5b611cec82611ca3565b810181811067ffffffffffffffff82111715611d0b57611d0a611cb4565b5b80604052505050565b6000611d1e611ba1565b9050611d2a8282611ce3565b919050565b600067ffffffffffffffff821115611d4a57611d49611cb4565b5b611d5382611ca3565b9050602081019050919050565b82818337600083830152505050565b6000611d82611d7d84611d2f565b611d14565b905082815260208101848484011115611d9e57611d9d611c9e565b5b611da9848285611d60565b509392505050565b600082601f830112611dc657611dc5611c99565b5b8135611dd6848260208601611d6f565b91505092915050565b60008060408385031215611df657611df5611bab565b5b600083013567ffffffffffffffff811115611e1457611e13611bb0565b5b611e2085828601611db1565b925050602083013567ffffffffffffffff811115611e4157611e40611bb0565b5b611e4d85828601611db1565b9150509250929050565b60008060008060808587031215611e7157611e70611bab565b5b6000611e7f87828801611bcc565b945050602085013567ffffffffffffffff811115611ea057611e9f611bb0565b5b611eac87828801611db1565b935050604085013567ffffffffffffffff811115611ecd57611ecc611bb0565b5b611ed987828801611db1565b9250506060611eea87828801611bcc565b91505092959194509250565b600081519050919050565b600082825260208201905092915050565b6000819050602082019050919050565b611f2b81611b6d565b82525050565b600081519050919050565b600082825260208201905092915050565b60005b83811015611f6b578082015181840152602081019050611f50565b83811115611f7a576000848401525b50505050565b6000611f8b82611f31565b611f958185611f3c565b9350611fa5818560208601611f4d565b611fae81611ca3565b840191505092915050565b6000608083016000830151611fd16000860182611f22565b5060208301518482036020860152611fe98282611f80565b915050604083015184820360408601526120038282611f80565b91505060608301516120186060860182611f22565b508091505092915050565b600061202f8383611fb9565b905092915050565b6000602082019050919050565b600061204f82611ef6565b6120598185611f01565b93508360208202850161206b85611f12565b8060005b858110156120a757848403895281516120888582612023565b945061209383612037565b925060208a0199505060018101905061206f565b50829750879550505050505092915050565b600060208201905081810360008301526120d38184612044565b905092915050565b600081905092915050565b7f7374616b65640000000000000000000000000000000000000000000000000000600082015250565b600061211c6006836120db565b9150612127826120e6565b600682019050919050565b600061213d8261210f565b9150819050919050565b600082825260208201905092915050565b7f4f6e6c79206f776e6572206f662074686520636f6e74726163742063616e206d60008201527f616b652065646974730000000000000000000000000000000000000000000000602082015250565b60006121b4602983612147565b91506121bf82612158565b604082019050919050565b600060208201905081810360008301526121e3816121a7565b9050919050565b7f436f75727365732068617665206e6f74206265656e20696e697469616c697a6560008201527f6400000000000000000000000000000000000000000000000000000000000000602082015250565b6000612246602183612147565b9150612251826121ea565b604082019050919050565b6000602082019050818103600083015261227581612239565b9050919050565b7f436f757273652068617320616c7265616479206265656e20636f6d706c65746560008201527f6400000000000000000000000000000000000000000000000000000000000000602082015250565b60006122d8602183612147565b91506122e38261227c565b604082019050919050565b60006020820190508181036000830152612307816122cb565b9050919050565b7f4e487b7100000000000000000000000000000000000000000000000000000000600052601160045260246000fd5b600061234882611b6d565b91507fffffffffffffffffffffffffffffffffffffffffffffffffffffffffffffffff82141561237b5761237a61230e565b5b600182019050919050565b61238f81611c2e565b82525050565b60006020820190506123aa6000830184612386565b92915050565b6000815190506123bf81611bb5565b92915050565b6000602082840312156123db576123da611bab565b5b60006123e9848285016123b0565b91505092915050565b600060ff82169050919050565b612408816123f2565b811461241357600080fd5b50565b600081519050612425816123ff565b92915050565b60006020828403121561244157612440611bab565b5b600061244f84828501612416565b91505092915050565b60008160011c9050919050565b6000808291508390505b60018511156124af5780860481111561248b5761248a61230e565b5b600185161561249a5780820291505b80810290506124a885612458565b945061246f565b94509492505050565b6000826124c85760019050612584565b816124d65760009050612584565b81600181146124ec57600281146124f657612525565b6001915050612584565b60ff8411156125085761250761230e565b5b8360020a91508482111561251f5761251e61230e565b5b50612584565b5060208310610133831016604e8410600b841016171561255a5782820a9050838111156125555761255461230e565b5b612584565b6125678484846001612465565b9250905081840481111561257e5761257d61230e565b5b81810290505b9392505050565b600061259682611b6d565b91506125a1836123f2565b92506125ce7fffffffffffffffffffffffffffffffffffffffffffffffffffffffffffffffff84846124b8565b905092915050565b60006125e182611b6d565b91506125ec83611b6d565b9250817fffffffffffffffffffffffffffffffffffffffffffffffffffffffffffffffff04831182151516156126255761262461230e565b5b828202905092915050565b60006060820190506126456000830186612386565b6126526020830185612386565b61265f6040830184611b77565b949350505050565b60008115159050919050565b61267c81612667565b811461268757600080fd5b50565b60008151905061269981612673565b92915050565b6000602082840312156126b5576126b4611bab565b5b60006126c38482850161268a565b91505092915050565b7f6465706f73697400000000000000000000000000000000000000000000000000600082015250565b60006127026007836120db565b915061270d826126cc565b600782019050919050565b6000612723826126f5565b9150819050919050565b600061273882611b6d565b915061274383611b6d565b9250827fffffffffffffffffffffffffffffffffffffffffffffffffffffffffffffffff038211156127785761277761230e565b5b828201905092915050565b60006040820190506127986000830185612386565b6127a56020830184611b77565b9392505050565b7f4e487b7100000000000000000000000000000000000000000000000000000000600052602260045260246000fd5b600060028204905060018216806127f357607f821691505b60208210811415612807576128066127ac565b5b50919050565b600061281882611f31565b6128228185612147565b9350612832818560208601611f4d565b61283b81611ca3565b840191505092915050565b60006040820190508181036000830152612860818561280d565b905061286f6020830184611b77565b9392505050565b600061288182611b6d565b915061288c83611b6d565b92508282101561289f5761289e61230e565b5b828203905092915050565b7f4e487b7100000000000000000000000000000000000000000000000000000000600052601260045260246000fd5b60006128e482611b6d565b91506128ef83611b6d565b9250826128ff576128fe6128aa565b5b82820490509291505056fea2646970667358221220869914c655f9a0ebb53bbe0e033970d75acaf7da63ebc158d854459f9b9ee99864736f6c634300080b0033",
  "immutableReferences": {},
  "source": "// SPDX-License-Identifier: MIT\npragma solidity ^0.8.0;\n\nimport \"../contracts/AstterToken.sol\";\n\ncontract AstterCore {\n  struct Video{\n     uint256 id;\n     string name;\n     string url;\n     uint256 duration;\n  }\n\n  struct Course{\n      string name;\n      string cover_photo;\n      uint256 timestamp;\n      uint256 vidCount;\n      Video[] videos;\n  }\n\n  uint256 userId;\n  uint256 courseId;\n  address owner;\n  uint averageCompletionDay;\n  Token private Astter;\n  Token private USDC;\n\n  event UserAdded(address indexed _user, uint256 timestamp);\n  event CourseAdded(uint256 indexed _subId, string name, uint256 timestamp);\n  event SubscriptionPurchased(address indexed _user, uint256 timestamp);\n\n  mapping(address => uint256) users; \n  mapping(uint => Course) courses;\n  Course[] coursesArr;\n  mapping(address => uint) userSubscribed;\n\n  mapping(address => uint256) staked;\n  mapping(address => uint256) dateOfStaking;\n  mapping(address => mapping(uint => uint)) completed;\n  mapping(address => uint) completedCount;\n  mapping(string => uint) treasury; \n\n  modifier onlyOwner() {\n     require(msg.sender == owner, \"Only owner of the contract can make edits\");\n     _;\n  }\n\n  constructor() {\n      userId = 0;\n      courseId = 0;\n      owner = msg.sender;\n      averageCompletionDay = 1036800000;\n      USDC = Token(0x08a978a0399465621e667C49CD54CC874DC064Eb);\n      Astter = Token(0xFe9085EB365A4807974FD76335605B939F57168f);\n\n      treasury[\"staked\"] = 0;\n      treasury[\"deposit\"] = 0;\n  }\n\n  function addUser() external {\n    users[msg.sender] = userId;\n    emit UserAdded(msg.sender, block.timestamp);\n    userId++;\n  }\n\n  function addCourse(string memory _name, string memory _cover_photo) external onlyOwner{\n     Course storage sub = courses[courseId];\n     sub.name = _name;\n     sub.cover_photo = _cover_photo;\n     sub.timestamp = block.timestamp;\n     sub.vidCount = 0;\n\n     coursesArr.push(sub);\n     emit CourseAdded(courseId, _name, block.timestamp);\n     courseId++;\n  }\n\n  function addVideos(uint256 _course, string memory _name, string memory _url, uint256 _duration) external onlyOwner{\n     Course storage sub = courses[_course];\n     sub.videos.push(Video(sub.vidCount, _name, _url, _duration));\n     sub.vidCount++;\n  }\n\n  function getVideos(uint256 _sub) external view returns(Video[] memory){\n     return courses[_sub].videos;\n  }\n\n  function buySubscription() external{\n     uint256 subAmount = 100 * (10 ** USDC.decimals());\n\n     USDC.transferFrom(msg.sender, address(this), subAmount);\n     treasury[\"deposit\"] = treasury[\"deposit\"] + subAmount;\n\n     Astter.approve(msg.sender, subAmount);\n     Astter.transfer(msg.sender, subAmount);\n\n     treasury[\"staked\"] = subAmount;\n     staked[msg.sender] = subAmount;\n     dateOfStaking[msg.sender] = block.timestamp;\n\n     userSubscribed[msg.sender] = 1;\n     emit SubscriptionPurchased(msg.sender, block.timestamp);\n  }\n\n  function completeCourse(uint _courseId) external onlyOwner {\n     require(courseId > 0, \"Courses have not been initialized\");\n     require(completed[msg.sender][_courseId] == 1, \"Course has already been completed\");\n     completed[msg.sender][_courseId] = 1;\n     completedCount[msg.sender]++;\n  }\n\n  function currentReward(address _user) public view returns(uint) {\n     uint256 stakedDays = block.timestamp - dateOfStaking[_user];\n     uint256 calculatedReward = staked[_user] * ((averageCompletionDay * completedCount[_user])/stakedDays) * (treasury[\"staked\"] / Astter.balanceOf(address(this)));\n     return calculatedReward;\n  }\n\n  function unstake() external {\n     uint calculatedReward = currentReward(msg.sender);\n     uint stakedAmount = staked[msg.sender];\n\n     Astter.approve(msg.sender, calculatedReward + stakedAmount);\n     Astter.transfer(msg.sender, calculatedReward + stakedAmount);\n\n     staked[msg.sender] = 0;\n      \n  }\n\n  function withdrawReward() external {\n     uint calculatedReward = currentReward(msg.sender);\n\n     Astter.approve(msg.sender, calculatedReward);\n     Astter.transfer(msg.sender, calculatedReward);\n  }\n\n  function getUserStaked(address _user) external view returns(uint) {\n     return staked[_user];\n  }\n\n  function getTotalStaked() external view returns (uint) {\n     return treasury[\"staked\"];\n  }\n\n  function getTotalDeposited() external view returns(uint) {\n     return treasury[\"deposit\"];\n  }\n\n  function getTotalAstterSupply() external view returns(uint) {\n     return Astter.totalSupply();\n  }\n\n   function getAstterBalanceOfContract() external view returns(uint) {\n      return Astter.balanceOf(address(this));\n   }\n\n   function getSubscriptionStatus(address _user) external view returns(uint) {\n      return userSubscribed[_user];\n   }\n\n   function withdrawLiquidity() external onlyOwner{\n      Astter.approve(owner, Astter.balanceOf(address(this)));\n      Astter.transfer(owner, Astter.balanceOf(address(this)));\n   }\n\n}\n",
  "sourcePath": "D:\\github\\AstterEd\\contracts\\AstterCore.sol",
  "compiler": {
    "name": "solc",
    "version": "0.8.11+commit.d7f03943.Emscripten.clang"
  },
  "schemaVersion": "3.4.4",
  "updatedAt": "2022-01-31T18:32:11.776Z",
  "devdoc": {
    "kind": "dev",
    "methods": {},
    "version": 1
  },
  "userdoc": {
    "kind": "user",
    "methods": {},
    "version": 1
  }
}