{
  "contractName": "AstterCore",
  "abi": [
    {
      "inputs": [],
      "stateMutability": "nonpayable",
      "type": "constructor"
    },
    {
      "anonymous": false,
      "inputs": [
        {
          "indexed": true,
          "internalType": "uint256",
          "name": "_subId",
          "type": "uint256"
        },
        {
          "indexed": false,
          "internalType": "string",
          "name": "name",
          "type": "string"
        },
        {
          "indexed": false,
          "internalType": "uint256",
          "name": "timestamp",
          "type": "uint256"
        }
      ],
      "name": "CourseAdded",
      "type": "event"
    },
    {
      "anonymous": false,
      "inputs": [
        {
          "indexed": true,
          "internalType": "address",
          "name": "_user",
          "type": "address"
        },
        {
          "indexed": false,
          "internalType": "uint256",
          "name": "timestamp",
          "type": "uint256"
        }
      ],
      "name": "SubscriptionPurchased",
      "type": "event"
    },
    {
      "anonymous": false,
      "inputs": [
        {
          "indexed": true,
          "internalType": "address",
          "name": "_user",
          "type": "address"
        },
        {
          "indexed": false,
          "internalType": "uint256",
          "name": "timestamp",
          "type": "uint256"
        }
      ],
      "name": "UserAdded",
      "type": "event"
    },
    {
      "inputs": [],
      "name": "addUser",
      "outputs": [],
      "stateMutability": "nonpayable",
      "type": "function"
    },
    {
      "inputs": [
        {
          "internalType": "string",
          "name": "_name",
          "type": "string"
        },
        {
          "internalType": "string",
          "name": "_cover_photo",
          "type": "string"
        }
      ],
      "name": "addCourse",
      "outputs": [],
      "stateMutability": "nonpayable",
      "type": "function"
    },
    {
      "inputs": [
        {
          "internalType": "uint256",
          "name": "_course",
          "type": "uint256"
        },
        {
          "internalType": "string",
          "name": "_name",
          "type": "string"
        },
        {
          "internalType": "string",
          "name": "_url",
          "type": "string"
        },
        {
          "internalType": "uint256",
          "name": "_duration",
          "type": "uint256"
        }
      ],
      "name": "addVideos",
      "outputs": [],
      "stateMutability": "nonpayable",
      "type": "function"
    },
    {
      "inputs": [
        {
          "internalType": "uint256",
          "name": "_sub",
          "type": "uint256"
        }
      ],
      "name": "getVideos",
      "outputs": [
        {
          "components": [
            {
              "internalType": "uint256",
              "name": "id",
              "type": "uint256"
            },
            {
              "internalType": "string",
              "name": "name",
              "type": "string"
            },
            {
              "internalType": "string",
              "name": "url",
              "type": "string"
            },
            {
              "internalType": "uint256",
              "name": "duration",
              "type": "uint256"
            }
          ],
          "internalType": "struct AstterCore.Video[]",
          "name": "",
          "type": "tuple[]"
        }
      ],
      "stateMutability": "view",
      "type": "function"
    },
    {
      "inputs": [],
      "name": "buySubscription",
      "outputs": [],
      "stateMutability": "nonpayable",
      "type": "function"
    },
    {
      "inputs": [
        {
          "internalType": "uint256",
          "name": "_courseId",
          "type": "uint256"
        }
      ],
      "name": "completeCourse",
      "outputs": [],
      "stateMutability": "nonpayable",
      "type": "function"
    },
    {
      "inputs": [],
      "name": "unstake",
      "outputs": [],
      "stateMutability": "nonpayable",
      "type": "function"
    },
    {
      "inputs": [],
      "name": "currentReward",
      "outputs": [
        {
          "internalType": "uint256",
          "name": "",
          "type": "uint256"
        }
      ],
      "stateMutability": "view",
      "type": "function"
    }
  ],
  "bytecode": "0x608060405234801561001057600080fd5b5060008081905550600060018190555033600260006101000a81548173ffffffffffffffffffffffffffffffffffffffff021916908373ffffffffffffffffffffffffffffffffffffffff160217905550633dcc500060038190555073a131ad247055fd2e2aa8b156a11bdec81b9ead95600560006101000a81548173ffffffffffffffffffffffffffffffffffffffff021916908373ffffffffffffffffffffffffffffffffffffffff16021790555073d9145cce52d386f254917e481eb44e9943f39138600460006101000a81548173ffffffffffffffffffffffffffffffffffffffff021916908373ffffffffffffffffffffffffffffffffffffffff160217905550612116806101256000396000f3fe608060405234801561001057600080fd5b50600436106100885760003560e01c80632def66201161005b5780632def6620146100ed578063355f4e47146100f7578063455c928c14610113578063a18546ad1461011d57610088565b806307621eca1461008d5780630d3b4292146100ab5780632718b175146100c75780632b75565d146100d1575b600080fd5b61009561014d565b6040516100a2919061146c565b60405180910390f35b6100c560048036038101906100c091906114c7565b610318565b005b6100cf61052e565b005b6100eb60048036038101906100e6919061163a565b6108ff565b005b6100f5610adf565b005b610111600480360381019061010c91906116b2565b610e2c565b005b61011b610f96565b005b610137600480360381019061013291906114c7565b611043565b6040516101449190611914565b60405180910390f35b600080600b60003373ffffffffffffffffffffffffffffffffffffffff1673ffffffffffffffffffffffffffffffffffffffff168152602001908152602001600020544261019b9190611965565b90506000600460009054906101000a900473ffffffffffffffffffffffffffffffffffffffff1673ffffffffffffffffffffffffffffffffffffffff166370a08231306040518263ffffffff1660e01b81526004016101fa91906119da565b602060405180830381865afa158015610217573d6000803e3d6000fd5b505050506040513d601f19601f8201168201806040525081019061023b9190611a0a565b600e60405161024990611a8e565b9081526020016040518091039020546102629190611ad2565b82600d60003373ffffffffffffffffffffffffffffffffffffffff1673ffffffffffffffffffffffffffffffffffffffff168152602001908152602001600020546003546102b09190611b03565b6102ba9190611ad2565b600a60003373ffffffffffffffffffffffffffffffffffffffff1673ffffffffffffffffffffffffffffffffffffffff168152602001908152602001600020546103049190611b03565b61030e9190611b03565b9050809250505090565b600260009054906101000a900473ffffffffffffffffffffffffffffffffffffffff1673ffffffffffffffffffffffffffffffffffffffff163373ffffffffffffffffffffffffffffffffffffffff16146103a8576040517f08c379a000000000000000000000000000000000000000000000000000000000815260040161039f90611be0565b60405180910390fd5b6000600154116103ed576040517f08c379a00000000000000000000000000000000000000000000000000000000081526004016103e490611c72565b60405180910390fd5b6001600c60003373ffffffffffffffffffffffffffffffffffffffff1673ffffffffffffffffffffffffffffffffffffffff16815260200190815260200160002060008381526020019081526020016000205414610480576040517f08c379a000000000000000000000000000000000000000000000000000000000815260040161047790611d04565b60405180910390fd5b6001600c60003373ffffffffffffffffffffffffffffffffffffffff1673ffffffffffffffffffffffffffffffffffffffff168152602001908152602001600020600083815260200190815260200160002081905550600d60003373ffffffffffffffffffffffffffffffffffffffff1673ffffffffffffffffffffffffffffffffffffffff168152602001908152602001600020600081548092919061052690611d24565b919050555050565b6000600560009054906101000a900473ffffffffffffffffffffffffffffffffffffffff1673ffffffffffffffffffffffffffffffffffffffff1663313ce5676040518163ffffffff1660e01b8152600401602060405180830381865afa15801561059d573d6000803e3d6000fd5b505050506040513d601f19601f820116820180604052508101906105c19190611da6565b600a6105cd9190611f06565b60646105d99190611b03565b9050600560009054906101000a900473ffffffffffffffffffffffffffffffffffffffff1673ffffffffffffffffffffffffffffffffffffffff166323b872dd3330846040518463ffffffff1660e01b815260040161063a93929190611f51565b6020604051808303816000875af1158015610659573d6000803e3d6000fd5b505050506040513d601f19601f8201168201806040525081019061067d9190611fc0565b50600460009054906101000a900473ffffffffffffffffffffffffffffffffffffffff1673ffffffffffffffffffffffffffffffffffffffff1663095ea7b333836040518363ffffffff1660e01b81526004016106db929190611fed565b6020604051808303816000875af11580156106fa573d6000803e3d6000fd5b505050506040513d601f19601f8201168201806040525081019061071e9190611fc0565b50600460009054906101000a900473ffffffffffffffffffffffffffffffffffffffff1673ffffffffffffffffffffffffffffffffffffffff1663a9059cbb33836040518363ffffffff1660e01b815260040161077c929190611fed565b6020604051808303816000875af115801561079b573d6000803e3d6000fd5b505050506040513d601f19601f820116820180604052508101906107bf9190611fc0565b5080600e6040516107cf90611a8e565b90815260200160405180910390208190555080600a60003373ffffffffffffffffffffffffffffffffffffffff1673ffffffffffffffffffffffffffffffffffffffff1681526020019081526020016000208190555042600b60003373ffffffffffffffffffffffffffffffffffffffff1673ffffffffffffffffffffffffffffffffffffffff168152602001908152602001600020819055506001600960003373ffffffffffffffffffffffffffffffffffffffff1673ffffffffffffffffffffffffffffffffffffffff168152602001908152602001600020819055503373ffffffffffffffffffffffffffffffffffffffff167f799bcc5d05a0d37fc0012dba6e154d1353b3b36495bf076daf88f7b1428a3f81426040516108f4919061146c565b60405180910390a250565b600260009054906101000a900473ffffffffffffffffffffffffffffffffffffffff1673ffffffffffffffffffffffffffffffffffffffff163373ffffffffffffffffffffffffffffffffffffffff161461098f576040517f08c379a000000000000000000000000000000000000000000000000000000000815260040161098690611be0565b60405180910390fd5b60006007600060015481526020019081526020016000209050828160000190805190602001906109c09291906111f0565b50818160010190805190602001906109d99291906111f0565b504281600201819055506000816003018190555060088190806001815401808255809150506001900390600052602060002090600502016000909190919091506000820181600001908054610a2d90612045565b610a38929190611276565b506001820181600101908054610a4d90612045565b610a58929190611276565b5060028201548160020155600382015481600301556004820181600401908054610a83929190611303565b5050506001547f408bd38fab55422dd8e6b059c527441102dfdedd8f00efe28b2b851e3a3733158442604051610aba9291906120b0565b60405180910390a260016000815480929190610ad590611d24565b9190505550505050565b6000600b60003373ffffffffffffffffffffffffffffffffffffffff1673ffffffffffffffffffffffffffffffffffffffff1681526020019081526020016000205442610b2c9190611965565b90506000600460009054906101000a900473ffffffffffffffffffffffffffffffffffffffff1673ffffffffffffffffffffffffffffffffffffffff166370a08231306040518263ffffffff1660e01b8152600401610b8b91906119da565b602060405180830381865afa158015610ba8573d6000803e3d6000fd5b505050506040513d601f19601f82011682018060405250810190610bcc9190611a0a565b600e604051610bda90611a8e565b908152602001604051809103902054610bf39190611ad2565b82600d60003373ffffffffffffffffffffffffffffffffffffffff1673ffffffffffffffffffffffffffffffffffffffff16815260200190815260200160002054600354610c419190611b03565b610c4b9190611ad2565b600a60003373ffffffffffffffffffffffffffffffffffffffff1673ffffffffffffffffffffffffffffffffffffffff16815260200190815260200160002054610c959190611b03565b610c9f9190611b03565b9050600460009054906101000a900473ffffffffffffffffffffffffffffffffffffffff1673ffffffffffffffffffffffffffffffffffffffff1663095ea7b333836040518363ffffffff1660e01b8152600401610cfe929190611fed565b6020604051808303816000875af1158015610d1d573d6000803e3d6000fd5b505050506040513d601f19601f82011682018060405250810190610d419190611fc0565b50600460009054906101000a900473ffffffffffffffffffffffffffffffffffffffff1673ffffffffffffffffffffffffffffffffffffffff1663a9059cbb33836040518363ffffffff1660e01b8152600401610d9f929190611fed565b6020604051808303816000875af1158015610dbe573d6000803e3d6000fd5b505050506040513d601f19601f82011682018060405250810190610de29190611fc0565b506000600a60003373ffffffffffffffffffffffffffffffffffffffff1673ffffffffffffffffffffffffffffffffffffffff168152602001908152602001600020819055505050565b600260009054906101000a900473ffffffffffffffffffffffffffffffffffffffff1673ffffffffffffffffffffffffffffffffffffffff163373ffffffffffffffffffffffffffffffffffffffff1614610ebc576040517f08c379a0000000000000000000000000000000000000000000000000000000008152600401610eb390611be0565b60405180910390fd5b600060076000868152602001908152602001600020905080600401604051806080016040528083600301548152602001868152602001858152602001848152509080600181540180825580915050600190039060005260206000209060040201600090919091909150600082015181600001556020820151816001019080519060200190610f4b9291906111f0565b506040820151816002019080519060200190610f689291906111f0565b50606082015181600301555050806003016000815480929190610f8a90611d24565b91905055505050505050565b600054600660003373ffffffffffffffffffffffffffffffffffffffff1673ffffffffffffffffffffffffffffffffffffffff168152602001908152602001600020819055503373ffffffffffffffffffffffffffffffffffffffff167f25ddd06f7eaeb83bb3fbcaa231d4b89e2d7bcd781043983661920061e755a7f042604051611022919061146c565b60405180910390a260008081548092919061103c90611d24565b9190505550565b606060076000838152602001908152602001600020600401805480602002602001604051908101604052809291908181526020016000905b828210156111e55783829060005260206000209060040201604051806080016040529081600082015481526020016001820180546110b890612045565b80601f01602080910402602001604051908101604052809291908181526020018280546110e490612045565b80156111315780601f1061110657610100808354040283529160200191611131565b820191906000526020600020905b81548152906001019060200180831161111457829003601f168201915b5050505050815260200160028201805461114a90612045565b80601f016020809104026020016040519081016040528092919081815260200182805461117690612045565b80156111c35780601f10611198576101008083540402835291602001916111c3565b820191906000526020600020905b8154815290600101906020018083116111a657829003601f168201915b505050505081526020016003820154815250508152602001906001019061107b565b505050509050919050565b8280546111fc90612045565b90600052602060002090601f01602090048101928261121e5760008555611265565b82601f1061123757805160ff1916838001178555611265565b82800160010185558215611265579182015b82811115611264578251825591602001919060010190611249565b5b50905061127291906113af565b5090565b82805461128290612045565b90600052602060002090601f0160209004810192826112a457600085556112f2565b82601f106112b557805485556112f2565b828001600101855582156112f257600052602060002091601f016020900482015b828111156112f15782548255916001019190600101906112d6565b5b5090506112ff91906113af565b5090565b82805482825590600052602060002090600402810192821561139e5760005260206000209160040282015b8281111561139d57828260008201548160000155600182018160010190805461135690612045565b611361929190611276565b50600282018160020190805461137690612045565b611381929190611276565b506003820154816003015550509160040191906004019061132e565b5b5090506113ab91906113cc565b5090565b5b808211156113c85760008160009055506001016113b0565b5090565b5b8082111561140f576000808201600090556001820160006113ee9190611413565b6002820160006113fe9190611413565b6003820160009055506004016113cd565b5090565b50805461141f90612045565b6000825580601f106114315750611450565b601f01602090049060005260206000209081019061144f91906113af565b5b50565b6000819050919050565b61146681611453565b82525050565b6000602082019050611481600083018461145d565b92915050565b6000604051905090565b600080fd5b600080fd5b6114a481611453565b81146114af57600080fd5b50565b6000813590506114c18161149b565b92915050565b6000602082840312156114dd576114dc611491565b5b60006114eb848285016114b2565b91505092915050565b600080fd5b600080fd5b6000601f19601f8301169050919050565b7f4e487b7100000000000000000000000000000000000000000000000000000000600052604160045260246000fd5b611547826114fe565b810181811067ffffffffffffffff821117156115665761156561150f565b5b80604052505050565b6000611579611487565b9050611585828261153e565b919050565b600067ffffffffffffffff8211156115a5576115a461150f565b5b6115ae826114fe565b9050602081019050919050565b82818337600083830152505050565b60006115dd6115d88461158a565b61156f565b9050828152602081018484840111156115f9576115f86114f9565b5b6116048482856115bb565b509392505050565b600082601f830112611621576116206114f4565b5b81356116318482602086016115ca565b91505092915050565b6000806040838503121561165157611650611491565b5b600083013567ffffffffffffffff81111561166f5761166e611496565b5b61167b8582860161160c565b925050602083013567ffffffffffffffff81111561169c5761169b611496565b5b6116a88582860161160c565b9150509250929050565b600080600080608085870312156116cc576116cb611491565b5b60006116da878288016114b2565b945050602085013567ffffffffffffffff8111156116fb576116fa611496565b5b6117078782880161160c565b935050604085013567ffffffffffffffff81111561172857611727611496565b5b6117348782880161160c565b9250506060611745878288016114b2565b91505092959194509250565b600081519050919050565b600082825260208201905092915050565b6000819050602082019050919050565b61178681611453565b82525050565b600081519050919050565b600082825260208201905092915050565b60005b838110156117c65780820151818401526020810190506117ab565b838111156117d5576000848401525b50505050565b60006117e68261178c565b6117f08185611797565b93506118008185602086016117a8565b611809816114fe565b840191505092915050565b600060808301600083015161182c600086018261177d565b506020830151848203602086015261184482826117db565b9150506040830151848203604086015261185e82826117db565b9150506060830151611873606086018261177d565b508091505092915050565b600061188a8383611814565b905092915050565b6000602082019050919050565b60006118aa82611751565b6118b4818561175c565b9350836020820285016118c68561176d565b8060005b8581101561190257848403895281516118e3858261187e565b94506118ee83611892565b925060208a019950506001810190506118ca565b50829750879550505050505092915050565b6000602082019050818103600083015261192e818461189f565b905092915050565b7f4e487b7100000000000000000000000000000000000000000000000000000000600052601160045260246000fd5b600061197082611453565b915061197b83611453565b92508282101561198e5761198d611936565b5b828203905092915050565b600073ffffffffffffffffffffffffffffffffffffffff82169050919050565b60006119c482611999565b9050919050565b6119d4816119b9565b82525050565b60006020820190506119ef60008301846119cb565b92915050565b600081519050611a048161149b565b92915050565b600060208284031215611a2057611a1f611491565b5b6000611a2e848285016119f5565b91505092915050565b600081905092915050565b7f7374616b65640000000000000000000000000000000000000000000000000000600082015250565b6000611a78600683611a37565b9150611a8382611a42565b600682019050919050565b6000611a9982611a6b565b9150819050919050565b7f4e487b7100000000000000000000000000000000000000000000000000000000600052601260045260246000fd5b6000611add82611453565b9150611ae883611453565b925082611af857611af7611aa3565b5b828204905092915050565b6000611b0e82611453565b9150611b1983611453565b9250817fffffffffffffffffffffffffffffffffffffffffffffffffffffffffffffffff0483118215151615611b5257611b51611936565b5b828202905092915050565b600082825260208201905092915050565b7f4f6e6c79206f776e6572206f662074686520636f6e74726163742063616e206d60008201527f616b652065646974730000000000000000000000000000000000000000000000602082015250565b6000611bca602983611b5d565b9150611bd582611b6e565b604082019050919050565b60006020820190508181036000830152611bf981611bbd565b9050919050565b7f436f75727365732068617665206e6f74206265656e20696e697469616c697a6560008201527f6400000000000000000000000000000000000000000000000000000000000000602082015250565b6000611c5c602183611b5d565b9150611c6782611c00565b604082019050919050565b60006020820190508181036000830152611c8b81611c4f565b9050919050565b7f436f757273652068617320616c7265616479206265656e20636f6d706c65746560008201527f6400000000000000000000000000000000000000000000000000000000000000602082015250565b6000611cee602183611b5d565b9150611cf982611c92565b604082019050919050565b60006020820190508181036000830152611d1d81611ce1565b9050919050565b6000611d2f82611453565b91507fffffffffffffffffffffffffffffffffffffffffffffffffffffffffffffffff821415611d6257611d61611936565b5b600182019050919050565b600060ff82169050919050565b611d8381611d6d565b8114611d8e57600080fd5b50565b600081519050611da081611d7a565b92915050565b600060208284031215611dbc57611dbb611491565b5b6000611dca84828501611d91565b91505092915050565b60008160011c9050919050565b6000808291508390505b6001851115611e2a57808604811115611e0657611e05611936565b5b6001851615611e155780820291505b8081029050611e2385611dd3565b9450611dea565b94509492505050565b600082611e435760019050611eff565b81611e515760009050611eff565b8160018114611e675760028114611e7157611ea0565b6001915050611eff565b60ff841115611e8357611e82611936565b5b8360020a915084821115611e9a57611e99611936565b5b50611eff565b5060208310610133831016604e8410600b8410161715611ed55782820a905083811115611ed057611ecf611936565b5b611eff565b611ee28484846001611de0565b92509050818404811115611ef957611ef8611936565b5b81810290505b9392505050565b6000611f1182611453565b9150611f1c83611d6d565b9250611f497fffffffffffffffffffffffffffffffffffffffffffffffffffffffffffffffff8484611e33565b905092915050565b6000606082019050611f6660008301866119cb565b611f7360208301856119cb565b611f80604083018461145d565b949350505050565b60008115159050919050565b611f9d81611f88565b8114611fa857600080fd5b50565b600081519050611fba81611f94565b92915050565b600060208284031215611fd657611fd5611491565b5b6000611fe484828501611fab565b91505092915050565b600060408201905061200260008301856119cb565b61200f602083018461145d565b9392505050565b7f4e487b7100000000000000000000000000000000000000000000000000000000600052602260045260246000fd5b6000600282049050600182168061205d57607f821691505b6020821081141561207157612070612016565b5b50919050565b60006120828261178c565b61208c8185611b5d565b935061209c8185602086016117a8565b6120a5816114fe565b840191505092915050565b600060408201905081810360008301526120ca8185612077565b90506120d9602083018461145d565b939250505056fea26469706673582212209f23921fcc2a65e262decfac26ac51aa4bc7fd3b63e5dbad87c195c2b079586364736f6c634300080b0033",
  "immutableReferences": {},
  "source": "// SPDX-License-Identifier: MIT\npragma solidity ^0.8.0;\n\nimport \"../contracts/AstterToken.sol\";\n\ncontract AstterCore {\n  struct Video{\n     uint256 id;\n     string name;\n     string url;\n     uint256 duration;\n  }\n\n  struct Course{\n      string name;\n      string cover_photo;\n      uint256 timestamp;\n      uint256 vidCount;\n      Video[] videos;\n  }\n\n  uint256 userId;\n  uint256 courseId;\n  address owner;\n  uint averageCompletionDay;\n  Token private Astter;\n  Token private USDC;\n\n  event UserAdded(address indexed _user, uint256 timestamp);\n  event CourseAdded(uint256 indexed _subId, string name, uint256 timestamp);\n  event SubscriptionPurchased(address indexed _user, uint256 timestamp);\n\n  mapping(address => uint256) users; \n  mapping(uint => Course) courses;\n  Course[] coursesArr;\n  mapping(address => uint) userSubscribed;\n\n  mapping(address => uint256) staked;\n  mapping(address => uint256) dateOfStaking;\n  mapping(address => mapping(uint => uint)) completed;\n  mapping(address => uint) completedCount;\n  mapping(string => uint) treasury; \n\n  modifier onlyOwner() {\n     require(msg.sender == owner, \"Only owner of the contract can make edits\");\n     _;\n  }\n\n  constructor() {\n      userId = 0;\n      courseId = 0;\n      owner = msg.sender;\n      averageCompletionDay = 1036800000;\n      USDC = Token(0xa131AD247055FD2e2aA8b156A11bdEc81b9eAD95);\n      Astter = Token(0xd9145CCE52D386f254917e481eB44e9943F39138);\n  }\n\n  function addUser() external {\n    users[msg.sender] = userId;\n    emit UserAdded(msg.sender, block.timestamp);\n    userId++;\n  }\n\n  function addCourse(string memory _name, string memory _cover_photo) external onlyOwner{\n     Course storage sub = courses[courseId];\n     sub.name = _name;\n     sub.cover_photo = _cover_photo;\n     sub.timestamp = block.timestamp;\n     sub.vidCount = 0;\n\n     coursesArr.push(sub);\n     emit CourseAdded(courseId, _name, block.timestamp);\n     courseId++;\n  }\n\n  function addVideos(uint256 _course, string memory _name, string memory _url, uint256 _duration) external onlyOwner{\n     Course storage sub = courses[_course];\n     sub.videos.push(Video(sub.vidCount, _name, _url, _duration));\n     sub.vidCount++;\n  }\n\n  function getVideos(uint256 _sub) external view returns(Video[] memory){\n     return courses[_sub].videos;\n  }\n\n  function buySubscription() external{\n     uint256 subAmount = 100 * (10 ** USDC.decimals());\n\n     USDC.transferFrom(msg.sender, address(this), subAmount);\n\n     Astter.approve(msg.sender, subAmount);\n     Astter.transfer(msg.sender, subAmount);\n\n     treasury[\"staked\"] = subAmount;\n     staked[msg.sender] = subAmount;\n     dateOfStaking[msg.sender] = block.timestamp;\n\n     userSubscribed[msg.sender] = 1;\n     emit SubscriptionPurchased(msg.sender, block.timestamp);\n  }\n\n  function completeCourse(uint _courseId) external onlyOwner {\n     require(courseId > 0, \"Courses have not been initialized\");\n     require(completed[msg.sender][_courseId] == 1, \"Course has already been completed\");\n     completed[msg.sender][_courseId] = 1;\n     completedCount[msg.sender]++;\n  }\n\n\n  function unstake() external {\n     uint256 stakedDays = block.timestamp - dateOfStaking[msg.sender];\n     uint256 calculatedReward = staked[msg.sender] * ((averageCompletionDay * completedCount[msg.sender])/stakedDays) * (treasury[\"staked\"] / Astter.balanceOf(address(this)));\n\n     Astter.approve(msg.sender, calculatedReward);\n     Astter.transfer(msg.sender, calculatedReward);\n\n     staked[msg.sender] = 0;\n      \n  }\n\n  function currentReward() external view returns(uint) {\n     uint256 stakedDays = block.timestamp - dateOfStaking[msg.sender];\n     uint256 calculatedReward = staked[msg.sender] * ((averageCompletionDay * completedCount[msg.sender])/stakedDays) * (treasury[\"staked\"] / Astter.balanceOf(address(this)));\n     return calculatedReward;\n  }\n\n}\n",
  "sourcePath": "D:\\github\\AstterEd\\contracts\\AstterCore.sol",
  "compiler": {
    "name": "solc",
    "version": "0.8.11+commit.d7f03943.Emscripten.clang"
  },
  "schemaVersion": "3.4.4",
  "updatedAt": "2022-01-31T07:29:15.980Z",
  "devdoc": {
    "kind": "dev",
    "methods": {},
    "version": 1
  },
  "userdoc": {
    "kind": "user",
    "methods": {},
    "version": 1
  }
}