{
  "contractName": "AstterCore",
  "abi": [
    {
      "inputs": [],
      "stateMutability": "nonpayable",
      "type": "constructor"
    },
    {
      "anonymous": false,
      "inputs": [
        {
          "indexed": true,
          "internalType": "uint256",
          "name": "_subId",
          "type": "uint256"
        },
        {
          "indexed": false,
          "internalType": "string",
          "name": "name",
          "type": "string"
        },
        {
          "indexed": false,
          "internalType": "uint256",
          "name": "timestamp",
          "type": "uint256"
        }
      ],
      "name": "SubscriptionAdded",
      "type": "event"
    },
    {
      "anonymous": false,
      "inputs": [
        {
          "indexed": true,
          "internalType": "address",
          "name": "_user",
          "type": "address"
        },
        {
          "indexed": true,
          "internalType": "uint256",
          "name": "_subId",
          "type": "uint256"
        },
        {
          "indexed": false,
          "internalType": "uint256",
          "name": "timestamp",
          "type": "uint256"
        }
      ],
      "name": "SubscriptionPurchased",
      "type": "event"
    },
    {
      "anonymous": false,
      "inputs": [
        {
          "indexed": true,
          "internalType": "address",
          "name": "_user",
          "type": "address"
        },
        {
          "indexed": false,
          "internalType": "uint256",
          "name": "timestamp",
          "type": "uint256"
        }
      ],
      "name": "UserAdded",
      "type": "event"
    },
    {
      "inputs": [],
      "name": "addUser",
      "outputs": [],
      "stateMutability": "nonpayable",
      "type": "function"
    },
    {
      "inputs": [
        {
          "internalType": "string",
          "name": "_name",
          "type": "string"
        },
        {
          "internalType": "string",
          "name": "_cover_photo",
          "type": "string"
        }
      ],
      "name": "addSubscription",
      "outputs": [],
      "stateMutability": "nonpayable",
      "type": "function"
    },
    {
      "inputs": [
        {
          "internalType": "uint256",
          "name": "_sub",
          "type": "uint256"
        },
        {
          "internalType": "string",
          "name": "_name",
          "type": "string"
        },
        {
          "internalType": "string",
          "name": "_url",
          "type": "string"
        },
        {
          "internalType": "uint256",
          "name": "_duration",
          "type": "uint256"
        }
      ],
      "name": "addVideos",
      "outputs": [],
      "stateMutability": "nonpayable",
      "type": "function"
    },
    {
      "inputs": [
        {
          "internalType": "uint256",
          "name": "_sub",
          "type": "uint256"
        }
      ],
      "name": "getVideos",
      "outputs": [
        {
          "components": [
            {
              "internalType": "uint256",
              "name": "id",
              "type": "uint256"
            },
            {
              "internalType": "string",
              "name": "name",
              "type": "string"
            },
            {
              "internalType": "string",
              "name": "url",
              "type": "string"
            },
            {
              "internalType": "uint256",
              "name": "duration",
              "type": "uint256"
            }
          ],
          "internalType": "struct AstterCore.Video[]",
          "name": "",
          "type": "tuple[]"
        }
      ],
      "stateMutability": "view",
      "type": "function"
    }
  ],
  "bytecode": "0x608060405234801561001057600080fd5b5060008081905550600060018190555033600260006101000a81548173ffffffffffffffffffffffffffffffffffffffff021916908373ffffffffffffffffffffffffffffffffffffffff160217905550610d6e806100706000396000f3fe608060405234801561001057600080fd5b506004361061004c5760003560e01c8063355f4e4714610051578063455c928c1461006d578063a18546ad14610077578063e01e680a146100a7575b600080fd5b61006b60048036038101906100669190610800565b6100c3565b005b61007561022d565b005b610091600480360381019061008c919061089f565b6102db565b60405161009e9190610a8f565b60405180910390f35b6100c160048036038101906100bc9190610ab1565b610488565b005b600260009054906101000a900473ffffffffffffffffffffffffffffffffffffffff1673ffffffffffffffffffffffffffffffffffffffff163373ffffffffffffffffffffffffffffffffffffffff1614610153576040517f08c379a000000000000000000000000000000000000000000000000000000000815260040161014a90610bac565b60405180910390fd5b6000600460008681526020019081526020016000209050806004016040518060800160405280836003015481526020018681526020018581526020018481525090806001815401808255809150506001900390600052602060002090600402016000909190919091506000820151816000015560208201518160010190805190602001906101e29291906105cd565b5060408201518160020190805190602001906101ff9291906105cd565b5060608201518160030155505080600301600081548092919061022190610bfb565b91905055505050505050565b600154600360003373ffffffffffffffffffffffffffffffffffffffff1673ffffffffffffffffffffffffffffffffffffffff168152602001908152602001600020819055503373ffffffffffffffffffffffffffffffffffffffff167f25ddd06f7eaeb83bb3fbcaa231d4b89e2d7bcd781043983661920061e755a7f0426040516102b99190610c53565b60405180910390a2600160008154809291906102d490610bfb565b9190505550565b606060046000838152602001908152602001600020600401805480602002602001604051908101604052809291908181526020016000905b8282101561047d57838290600052602060002090600402016040518060800160405290816000820154815260200160018201805461035090610c9d565b80601f016020809104026020016040519081016040528092919081815260200182805461037c90610c9d565b80156103c95780601f1061039e576101008083540402835291602001916103c9565b820191906000526020600020905b8154815290600101906020018083116103ac57829003601f168201915b505050505081526020016002820180546103e290610c9d565b80601f016020809104026020016040519081016040528092919081815260200182805461040e90610c9d565b801561045b5780601f106104305761010080835404028352916020019161045b565b820191906000526020600020905b81548152906001019060200180831161043e57829003601f168201915b5050505050815260200160038201548152505081526020019060010190610313565b505050509050919050565b600260009054906101000a900473ffffffffffffffffffffffffffffffffffffffff1673ffffffffffffffffffffffffffffffffffffffff163373ffffffffffffffffffffffffffffffffffffffff1614610518576040517f08c379a000000000000000000000000000000000000000000000000000000000815260040161050f90610bac565b60405180910390fd5b600060046000805481526020019081526020016000209050828160000190805190602001906105489291906105cd565b50818160010190805190602001906105619291906105cd565b50428160020181905550600081600301819055506000547fa5f5ec908dff1ddb9e8811bd844284dd3a30ad4e7554d470431b5963f7341a3b84426040516105a9929190610d08565b60405180910390a26000808154809291906105c390610bfb565b9190505550505050565b8280546105d990610c9d565b90600052602060002090601f0160209004810192826105fb5760008555610642565b82601f1061061457805160ff1916838001178555610642565b82800160010185558215610642579182015b82811115610641578251825591602001919060010190610626565b5b50905061064f9190610653565b5090565b5b8082111561066c576000816000905550600101610654565b5090565b6000604051905090565b600080fd5b600080fd5b6000819050919050565b61069781610684565b81146106a257600080fd5b50565b6000813590506106b48161068e565b92915050565b600080fd5b600080fd5b6000601f19601f8301169050919050565b7f4e487b7100000000000000000000000000000000000000000000000000000000600052604160045260246000fd5b61070d826106c4565b810181811067ffffffffffffffff8211171561072c5761072b6106d5565b5b80604052505050565b600061073f610670565b905061074b8282610704565b919050565b600067ffffffffffffffff82111561076b5761076a6106d5565b5b610774826106c4565b9050602081019050919050565b82818337600083830152505050565b60006107a361079e84610750565b610735565b9050828152602081018484840111156107bf576107be6106bf565b5b6107ca848285610781565b509392505050565b600082601f8301126107e7576107e66106ba565b5b81356107f7848260208601610790565b91505092915050565b6000806000806080858703121561081a5761081961067a565b5b6000610828878288016106a5565b945050602085013567ffffffffffffffff8111156108495761084861067f565b5b610855878288016107d2565b935050604085013567ffffffffffffffff8111156108765761087561067f565b5b610882878288016107d2565b9250506060610893878288016106a5565b91505092959194509250565b6000602082840312156108b5576108b461067a565b5b60006108c3848285016106a5565b91505092915050565b600081519050919050565b600082825260208201905092915050565b6000819050602082019050919050565b61090181610684565b82525050565b600081519050919050565b600082825260208201905092915050565b60005b83811015610941578082015181840152602081019050610926565b83811115610950576000848401525b50505050565b600061096182610907565b61096b8185610912565b935061097b818560208601610923565b610984816106c4565b840191505092915050565b60006080830160008301516109a760008601826108f8565b50602083015184820360208601526109bf8282610956565b915050604083015184820360408601526109d98282610956565b91505060608301516109ee60608601826108f8565b508091505092915050565b6000610a05838361098f565b905092915050565b6000602082019050919050565b6000610a25826108cc565b610a2f81856108d7565b935083602082028501610a41856108e8565b8060005b85811015610a7d5784840389528151610a5e85826109f9565b9450610a6983610a0d565b925060208a01995050600181019050610a45565b50829750879550505050505092915050565b60006020820190508181036000830152610aa98184610a1a565b905092915050565b60008060408385031215610ac857610ac761067a565b5b600083013567ffffffffffffffff811115610ae657610ae561067f565b5b610af2858286016107d2565b925050602083013567ffffffffffffffff811115610b1357610b1261067f565b5b610b1f858286016107d2565b9150509250929050565b600082825260208201905092915050565b7f4f6e6c79206f776e6572206f662074686520636f6e74726163742063616e206d60008201527f616b652065646974730000000000000000000000000000000000000000000000602082015250565b6000610b96602983610b29565b9150610ba182610b3a565b604082019050919050565b60006020820190508181036000830152610bc581610b89565b9050919050565b7f4e487b7100000000000000000000000000000000000000000000000000000000600052601160045260246000fd5b6000610c0682610684565b91507fffffffffffffffffffffffffffffffffffffffffffffffffffffffffffffffff821415610c3957610c38610bcc565b5b600182019050919050565b610c4d81610684565b82525050565b6000602082019050610c686000830184610c44565b92915050565b7f4e487b7100000000000000000000000000000000000000000000000000000000600052602260045260246000fd5b60006002820490506001821680610cb557607f821691505b60208210811415610cc957610cc8610c6e565b5b50919050565b6000610cda82610907565b610ce48185610b29565b9350610cf4818560208601610923565b610cfd816106c4565b840191505092915050565b60006040820190508181036000830152610d228185610ccf565b9050610d316020830184610c44565b939250505056fea2646970667358221220774b65fac4c5b9e494092fee8780a7cc795907f780df084a0ff4e3b391d852c864736f6c634300080b0033",
  "immutableReferences": {},
  "source": "// SPDX-License-Identifier: MIT\npragma solidity ^0.8.0;\n\ncontract AstterCore {\n  struct Video{\n     uint256 id;\n     string name;\n     string url;\n     uint256 duration;\n  }\n\n  struct Subscription{\n      string name;\n      string cover_photo;\n      uint256 timestamp;\n      uint256 vidCount;\n      Video[] videos;\n  }\n\n  uint256 subId;\n  uint256 userId;\n  address owner;\n\n  event UserAdded(address indexed _user, uint256 timestamp);\n  event SubscriptionAdded(uint256 indexed _subId, string name, uint256 timestamp);\n  event SubscriptionPurchased(address indexed _user, uint256 indexed _subId, uint256 timestamp);\n\n  mapping(address => uint256) users; \n  mapping(uint => Subscription) subscriptionsAvailable;\n  mapping(address => Subscription) subscriptionsBoughtByUser;\n\n  modifier onlyOwner() {\n     require(msg.sender == owner, \"Only owner of the contract can make edits\");\n     _;\n  }\n\n  constructor() {\n      subId = 0;\n      userId = 0;\n      owner = msg.sender;\n  }\n\n  function addUser() external {\n    users[msg.sender] = userId;\n    emit UserAdded(msg.sender, block.timestamp);\n    userId++;\n  }\n\n  function addSubscription(string memory _name, string memory _cover_photo) external onlyOwner{\n     Subscription storage sub = subscriptionsAvailable[subId];\n     sub.name = _name;\n     sub.cover_photo = _cover_photo;\n     sub.timestamp = block.timestamp;\n     sub.vidCount = 0;\n\n     emit SubscriptionAdded(subId, _name, block.timestamp);\n     subId++;\n  }\n\n  function addVideos(uint256 _sub, string memory _name, string memory _url, uint256 _duration) external onlyOwner{\n     Subscription storage sub = subscriptionsAvailable[_sub];\n     sub.videos.push(Video(sub.vidCount, _name, _url, _duration));\n     sub.vidCount++;\n  }\n\n  function getVideos(uint256 _sub) external view returns(Video[] memory){\n     return subscriptionsAvailable[_sub].videos;\n  }\n\n}\n",
  "sourcePath": "D:\\github\\AstterEd\\contracts\\AstterCore.sol",
  "compiler": {
    "name": "solc",
    "version": "0.8.11+commit.d7f03943.Emscripten.clang"
  },
  "schemaVersion": "3.4.4",
  "updatedAt": "2022-01-28T09:00:05.034Z",
  "devdoc": {
    "kind": "dev",
    "methods": {},
    "version": 1
  },
  "userdoc": {
    "kind": "user",
    "methods": {},
    "version": 1
  }
}